:020000040800F2
:100000000040022009880108998801086D740108E0
:1000100000000000000000000000000000000000E0
:100020000000000000000000000000001F90010818
:10003000000000000000000031910108597401081F
:100040009988010899880108998801089988010808
:1000500099880108998801089988010899880108F8
:1000600099880108998801089988010899880108E8
:1000700099880108998801089988010899880108D8
:1000800099880108998801089988010899880108C8
:1000900099880108998801089988010899880108B8
:1000A000998801089988010899880108AD740108A8
:0C00B000D174010801750108998801084D
:1000C00010B5064C2378002B07D1054B002B02D02E
:1000D000044800E000BF0123237010BDE80D00209C
:1000E0000000000074AE0208044B10B5002B03D0D2
:1000F0000349044800E000BF10BDC04600000000F6
:10010000EC0D002074AE020802780B78002A03D0B0
:10011000013001319A42F7D0D01A70470023C25CF7
:100120000133002AFBD1581E7047000002B471460B
:1001300049084900095C49008E4402BC7047C0462A
:1001400003B47146490840004900095A49008E44E9
:1001500003BC7047002243088B4274D303098B42CF
:100160005FD3030A8B4244D3030B8B4228D3030C87
:100170008B420DD3FF22090212BA030C8B4202D329
:100180001212090265D0030B8B4219D300E0090A51
:10019000C30B8B4201D3CB03C01A5241830B8B425A
:1001A00001D38B03C01A5241430B8B4201D34B0343
:1001B000C01A5241030B8B4201D30B03C01A5241A8
:1001C000C30A8B4201D3CB02C01A5241830A8B422D
:1001D00001D38B02C01A5241430A8B4201D34B0216
:1001E000C01A5241030A8B4201D30B02C01A52417A
:1001F000CDD2C3098B4201D3CB01C01A524183092E
:100200008B4201D38B01C01A524143098B4201D367
:100210004B01C01A524103098B4201D30B01C01A92
:100220005241C3088B4201D3CB00C01A524183080C
:100230008B4201D38B00C01A524143088B4201D339
:100240004B00C01A5241411A00D201465241104699
:100250007047FFE701B5002000F0F0F802BDC0468E
:100260000029F7D076E7704703460B437FD400227E
:1002700043088B4274D303098B425FD3030A8B423A
:1002800044D3030B8B4228D3030C8B420DD3FF22A4
:10029000090212BA030C8B4202D31212090265D072
:1002A000030B8B4219D300E0090AC30B8B4201D325
:1002B000CB03C01A5241830B8B4201D38B03C01A6C
:1002C0005241430B8B4201D34B03C01A5241030BE3
:1002D0008B4201D30B03C01A5241C30A8B4201D394
:1002E000CB02C01A5241830A8B4201D38B02C01A3F
:1002F0005241430A8B4201D34B02C01A5241030AB6
:100300008B4201D30B02C01A5241CDD2C3098B429A
:1003100001D3CB01C01A524183098B4201D38B0117
:10032000C01A524143098B4201D34B01C01A5241BA
:1003300003098B4201D30B01C01A5241C3088B42FF
:1003400001D3CB00C01A524183088B4201D38B00EA
:10035000C01A524143088B4201D34B00C01A52418C
:10036000411A00D201465241104670475DE0CA0F63
:1003700000D04942031000D34042534000229C4623
:1003800003098B422DD3030A8B4212D3FC2289012D
:1003900012BA030A8B420CD3890192118B4208D303
:1003A000890192118B4204D389013AD0921100E065
:1003B0008909C3098B4201D3CB01C01A5241830979
:1003C0008B4201D38B01C01A524143098B4201D3A6
:1003D0004B01C01A524103098B4201D30B01C01AD1
:1003E0005241C3088B4201D3CB00C01A524183084B
:1003F0008B4201D38B00C01A5241D9D243088B42A1
:1004000001D34B00C01A5241411A00D20146634643
:1004100052415B10104601D34042002B00D54942A7
:10042000704763465B1000D3404201B5002000F0E6
:1004300005F802BD0029F8D016E770477047C0469E
:100440008446100062468C461900634600E0C046B0
:100450001FB501F0D9FC002801D40021C8421FBDFE
:1004600010B501F029FC4042013010BD10B501F07B
:10047000CBFC002801DB002010BD012010BDC046D0
:1004800010B501F0C1FC002801DD002010BD0120E5
:1004900010BDC04610B501F051FC002801DC002061
:1004A00010BD012010BDC04610B501F047FC00286A
:1004B00001DA002010BD012010BDC04684460800AE
:1004C0006146FFE71FB500F04BFA002801D4002178
:1004D000C8421FBD10B500F0D7F94042013010BD31
:1004E00010B500F03DFA002801DB002010BD01200E
:1004F00010BDC04610B500F033FA002801DD002021
:1005000010BD012010BDC04610B500F0E3F9002871
:1005100001DC002010BD012010BDC04610B500F068
:10052000D9F9002801DA002010BD012010BDC04615
:10053000994201D1801A04D002D201204042704772
:1005400001207047002B11D1002A0FD1002900D1C2
:10055000002802D00021C943080007B4024802A1C4
:100560004018029003BDC046D5FEFFFF03B46846A5
:1005700001B5029800F0BCF8019B9E4602B00CBC8D
:100580007047C046F0B5CE46474680B5070099464D
:100590003B0C9C4613041B0C1D000E00614600041E
:1005A000140C000C45434B4360436143C0182C0CB2
:1005B00020188C46834203D980235B029846C444AA
:1005C000494679437243030C63442D042D0CC9182A
:1005D000000440198918C0BCB946B046F0BDC046F9
:1005E0009E2110B5C905041CFFF798FF002803D110
:1005F000201C00F0CDFC10BD9E21201CC90500F080
:1006000019FB00F0C5FC80231B069C466044F2E702
:1006100070B500220C4B04000D00FFF745FF0028C9
:1006200004D12000290002F06FFA70BD064B0022B1
:100630002000290001F0B8FE02F066FA80231B06B4
:100640009C466044F1E7C0460000E04170B50500FB
:100650000C000022002328002100FFF707FF0028DC
:1006600008D12800210000F00FF802000B00100054
:10067000190070BD80231B06E118280000F004F863
:10068000002342428B41F2E770B500220B4B0D0074
:10069000040001F01DFCFFF7BBFF060002F09AFA10
:1006A0000022074B01F014FC02000B00200029007F
:1006B00001F07AFEFFF7ACFF310070BD0000F03DA5
:1006C0000000F04170B50600080002F053FA002265
:1006D000064B01F0FDFB0D000400300002F07AFA39
:1006E0002B00220000F0B6FC70BDC0460000F041B7
:1006F000F0B557464E464546DE46E0B504000D00CF
:100700009246994683B08B4230D82DD04946504608
:1007100002F074FB29000600200002F06FFB331A80
:100720009846203B9B4633D45A4653469340424614
:100730001F00534693401E00AF423AD8AF4200D14B
:1007400078E05B46A41BBD41002B00DA75E0002277
:1007500000230092019301235A4693400193012301
:1007600042469340009328E08242CFD900220023E2
:10077000009201930C9B002B01D01C605D600098DF
:10078000019903B0F0BCBB46B246A946A046F0BDF5
:10079000424620239B1A5246DA40414613004A46FD
:1007A0008A40170042461F43534693401E00AF4203
:1007B000C4D900220023009201934346002BD9D0D4
:1007C000FB0772081A4346467B080EE0AB4201D194
:1007D000A2420CD8A41A9D41012024196D41002188
:1007E000013E24184D41002E06D0AB42EED9013E09
:1007F00024196D41002EF8D1009801995B4600192B
:100800006941002B24DB2B005A464446D3402A0082
:10081000E2401C005B461500002B2ADB26009E40B0
:10082000330026004746BE403200801A99410090AE
:1008300001919FE7A342BCD883E7424620230021D1
:100840009B1A0022009101920122DA40019286E770
:10085000424620239B1A2A0046469A402300F34032
:10086000444613432A00E2401C005B461500002B5F
:10087000D4DA42462F002023260097409B1ADE4000
:100880003B003343CDE7C04670B5420045024E02FF
:100890004C00C30F6D0A0120120E760A240EC90FF8
:1008A000FF2A06D0FF2C03D0A24201D1B54206D0C8
:1008B00070BD002DFCD1FF2CFAD1002EF8D18B4257
:1008C00006D00120002AF3D12800431E9841EFE70B
:1008D0000020EDE770B5420045024E024C00C30F08
:1008E0006D0A120E760A240EC80FFF2A1BD0FF2CA9
:1008F0000ED0002A1BD1002C01D1002E1CD0002DBF
:100900000CD083421CD00221581E0840013870BD13
:10091000002E22D1002AF4D1002DF2D10028F6D1E8
:1009200001204042F3E7002D17D1FF2CF0D0002C1E
:10093000E7D1002EE5D1E6E70020002DE7D0E2E781
:10094000A24205DCEADBB54202D8E7D30020DEE7AD
:100950004342584140000138D9E702204042D6E7DF
:1009600070B5420045024E024C00C30F6D0A120ED4
:10097000760A240EC80FFF2A0BD0FF2C0DD0002AB8
:100980001FD1002C16D1002E14D10020002D10D024
:1009900009E0002D0CD1FF2C13D1002E08D1002A24
:1009A00008D0834212D00221581E0840013800E0CE
:1009B000022070BD002DF4D10028FAD10120404260
:1009C000F7E7002CEDD1002EEBD1ECE7A24205DCDD
:1009D000F2DBB54202D8EFD30020EAE743425841A8
:1009E00040000138E5E7C046F0B54F464646D646DA
:1009F00044024500C0B5640A0F1C2D0EC60F002D21
:100A000000D18DE0FF2D00D192E000238020994697
:100A10009A46E400C00404437F3D7802430A9846A6
:100A20007B001B0EFF0F002B00D170E0FF2B00D1CD
:100A300086E04246D00080227F3BED180023D2049E
:100A4000024390469C4631004B467940681C0F2B70
:100A50001CD8764A9B00D3589F4639004446E2464C
:100A60005346022B0FD0032B00D1D7E0012B37D1F7
:100A700000200024C0052043C9070843E0BCBA4653
:100A8000B146A846F0BDFF200024F3E7260C24045D
:100A9000220C44462404240C434627001B0C5743D5
:100AA00074435A435E4312193B0C9B189C4203D972
:100AB00080225202944666443F041A043F0CD21925
:100AC0009401671EBC411B0C920E9B1914439B01A1
:100AD0001C431B0100D49BE0012362081C4014430B
:100AE00002007F32002A64DD630704D00F23234015
:100AF000042B00D00434230103D502004C4B803278
:100B00001C40FE2ABFDCA401640AD0B2B2E743460F
:100B1000002B3DD14A4601331A4391469C4692E749
:100B2000002C29D104239946033B00259A4674E7FB
:100B3000002C1BD108239946063BFF259A466CE7FB
:100B40004346FF35002B0BD102234A461A439146F8
:100B50009C4678E753463100022B00D083E792E7AA
:100B600003234A461A4391469C466CE70C23994658
:100B7000093BFF259A4650E7200002F021F976252F
:100B8000431F9C4000236D4299469A462D1A44E724
:100B9000404602F015F94246431F9A4000232D1AA1
:100BA00090469C46763D4EE780240021FF20E403DA
:100BB00060E701239B1A1B2B00DD59E722009E30C2
:100BC000DA4084401300621E94411C43630704D042
:100BD0000F232340042B00D0043463011AD50120D5
:100BE000002447E78020C003044209D04346034263
:100BF00006D14446044364023900FF20640A39E701
:100C00008020C003044364023100FF20640A31E7FE
:100C1000280065E7A4010020640A2BE78020C003B8
:100C200004436402FF20640A24E7C0467CE502080E
:100C3000FFFFFFF7F8B5CE46474643025B0A4E0278
:100C4000DA009446720A914645004A0080B52D0E9E
:100C50001F00C40F120EC90FB609FF2A5BD0012076
:100C600041408C4239D0A81A00285ADD002A6AD0A7
:100C7000FF2D00D1D9E08022D20416431B2800DCCE
:100C8000E9E001206346181A430100D4B4E0800172
:100C90008709380002F094F805388740854200DC67
:100CA000CCE02D1AB5483840430704D00F23034049
:100CB000042B00D00430430100D4A0E06A1CFE2DB8
:100CC00000D18DE08001470AD2B2D0053843E40755
:100CD0002043C0BCB946B046F8BDA81A80460028DB
:100CE00045DD002A70D0FF2D00D19EE08023DB047B
:100CF0001E4343461B2B00DCD2E00120604443012D
:100D00007AD50135FF2D6BD001239D4A0340400861
:100D100010401843C8E7002E20D08C4223D0280072
:100D2000FF38002839D0571B002D00D09DE06346C6
:100D3000002B00D1DBE07B1E012F00D10DE1FF2F46
:100D400071D01F0098E0002E00D1A7E0421E0128BC
:100D500000D1E6E0FF2868D010008FE70120414075
:100D6000A14200D07FE7FF2040428046A844404691
:100D7000002838D0511B002D00D1AEE0FF2A00D151
:100D8000DFE080236046DB04184384461B2900DC37
:100D9000D9E0012015008019B1E7FE206A1C10423D
:100DA00071D1002D00D0A6E06346002B00D1D9E020
:100DB0000022002E00D188E7981B430100D4E1E017
:100DC00063460C00F01A6FE7002E00D1B7E0020076
:100DD000013A012800D19CE0FF2826D0904688E700
:100DE000FF22002771E7FE206A1C104264D0FF2A10
:100DF000F6D0150066447008430700D056E7C308D4
:100E0000FF2D12D05B025F0AEAB25EE76246002A5B
:100E100000D196E0002E08D08022D203134204D0E5
:100E20004846104201D10C004B46002BD8D08027F9
:100E3000FF031F437F02FF227F0A46E720233A0079
:100E4000451B38000135EA405D1BA840431E984110
:100E50000025104328E720231B1A32009E40C24081
:100E60003000431E984110430CE7FF2ADBD080235B
:100E70006046DB04184384461B2F56DD01200C001E
:100E80001500301A00E763469F1B7B013DD4002FFD
:100E900000D0FEE600240022002716E70500AFE799
:100EA000320043464146DA4020235B1A9E40300020
:100EB000431E9841104321E7002DA7D16346002B24
:100EC00059D00022002E00D1FFE6300060444301DB
:100ED00092D52A4B013518408EE76346002B47D048
:100EE0004B1E012915D0FF292BD019004EE70C000D
:100EF0004B463D0084E76246002A8BD1002E92D1FA
:100F000080270024FF22FF03DFE663460C00F71A68
:100F1000BFE6300060440125430100D46CE70225A0
:100F2000F2E663460125981BAEE620236446604640
:100F3000FC40DF1BB840431E984120439FE705005B
:100F40005EE74B4671E7202365466046CD40591A5F
:100F50008840431E984128431CE763460C00012546
:100F6000F01A91E6002E95D00C004F460022ACE618
:100F70004B460D0044E74F460022A6E6FFFFFFFB6D
:100F8000FFFFFF7D002800D036E7002400279CE605
:100F900041024200C30F490A0020120E7E2A03DDDF
:100FA0009D2A02DD094A98187047802000040143F9
:100FB000952A07DC9620821AD1404842002BF3D1B3
:100FC0000800F1E7963A9140F7E7C046FFFFFF7F40
:100FD00070B5051E0ED001F0F3FE9E2304001B1A0F
:100FE000962B0CDC082801DD083CA5406D026D0A3B
:100FF000D8B201E000200025C005284370BD992B20
:1010000009DD020029001B3291404A1E9141052250
:10101000121AD5400D43052C12DC29000C4E31402C
:101020006A0709D00F202840042805D004314A015E
:1010300002D59F2331401B1B89014D0AD8B2DBE743
:10104000621F95402900024E31406A07F4D0E9E75B
:10105000FFFFFFFBF0B54F464646D6460D000400A5
:10106000C0B51F0011002803620F400A10437A0028
:10107000520DE3003C039146640AFA0F4F0F6E00D5
:1010800027439246B846760DED0FC900954200D130
:1010900099E04C46341BA446002C00DC7CE04A4618
:1010A000002A00D1B8E0C54A964200D11CE1802256
:1010B0003C0012041443A0466246382A00DD61E178
:1010C0001F2A00DDCCE164462022121B44469440D6
:1010D0000F00A14664469140E7404C464A1E9141AC
:1010E0003C43424621436446E240801A5C1AA342D4
:1010F0009B415F42C71B3B0200D4D0E07F027F0AC6
:10110000002F00D1FFE0380001F05AFE010008393D
:10111000202322005B1A8F40DA408C401743B142F3
:1011200000DAFFE0891B4B1C1F2B00DDA8E020220A
:101130003900D21A200094409140D840621E944158
:10114000DF40002601430C43630709D00F232340EF
:10115000042B05D0231DA342A44164423F191C0067
:101160003B0200D49EE0954B01369E4200D1B7E091
:10117000934AE40817407B0771057F0223433F0B26
:101180004A0D12053A43ED072A4318001100E0BC4E
:10119000BA46B146A846F0BD002C4BD04C46A41B25
:1011A000A446002E00D023E104001C4300D1AFE18F
:1011B0006246541E012A00D115E2804DAC4500D193
:1011C000C8E1A4461BE14A46B21A9446002A00DC54
:1011D000ACE04A46002A43D0784A964200D1AFE1BB
:1011E00080223C0012041443A0466246382A67DC81
:1011F0001F2A00DC5FE14746203AD7406246202A9A
:1012000005D064464022121B4446944021434A1EA6
:1012100091410C003C4357E03A000A4300D105E1FC
:101220002200013A012C00D182E1644CA4455BD03C
:10123000944641E7634C771C274200D0C4E0040089
:101240001C43002E00D069E1002C00D1BFE14446D0
:101250000C4300D0D0E14207DB081343C00829E06B
:101260003A000A4300D170E162466446013A012C1B
:1012700000D1E0E0514CA44500D161E19446B4E7CF
:101280003A001F39CA401100202B03D04022D31A44
:101290009F403C43631E9C41002700260C4363078C
:1012A00000D053E7B446E4087B072343F808434AD9
:1012B00094451DD06246070352053F0B520D60E76F
:1012C00044460C43621E9441E4189C429B415F4299
:1012D0003F183B02E3D5394B01369E4200D0B5E0C2
:1012E0003200002700234CE74207DB081343C00805
:1012F0001A00024300D1E1E180273F0307433F0387
:101300002E4A3F0B3DE7200001F05AFD0100183145
:101310001F2900DCFCE60838844027000024B14285
:1013200000DBFFE6264A761A17400DE7002A2FD089
:101330004A46921B9446002E00D1ADE01F4A9145CB
:1013400000D10FE18022120410436246382A00DDEA
:101350000FE11F2A00DD80E1644620221E00121BDF
:101360006746040093409440FE405A1E9341F84063
:1013700034431C43804464188C42BF417F424E4634
:101380004744A6E742460A4311004A1E9141ADE692
:101390000C4C721C224200D0A1E002001A43002E25
:1013A00000D0FAE0002A00D145E13A000A4300D01B
:1013B00046E14207DB081343C0087BE7FF07000054
:1013C000FFFF7FFFFE07000047465C1AC21BA342D7
:1013D000BF417F42B94617004A46BF1A3A0200D5BC
:1013E0008DE023003B4300D08AE60020002561E722
:1013F000B44CA14500D1ADE08024240420436446D0
:10140000382C3DDC62461F2C00DDB7E020251E0095
:101410002D1B0400AB40AC40D640D04042465D1E80
:10142000AB413443121A904623432CE04207DB08B9
:101430001343C0083BE75C189C429B4140445B421D
:10144000C71801263B0200D429E702269E4A6308FA
:101450001740012214401C43FB071C437F0873E61E
:101460004446203AD4406246202A05D067464022AE
:10147000D21B4746974039434A1E9141214335E6E6
:101480000343581E8341CC1AA142BF4143467F42C9
:1014900055464E46DF1B2EE602001A4300D1BDE042
:1014A00062466446013A012C00D1E5E0854CA44532
:1014B00058D0944649E764462022121B4446944083
:1014C0000F00A14664469140E7404C464A1E9141B8
:1014D0003C4342460C436146CA408018F4E6794CCE
:1014E000A24200D1FDE6591899429B4140445F4217
:1014F000C719FC07490816000C437F08CFE6CC1A31
:10150000A142BF4143467F42181A5546C71BF7E523
:10151000C9087B0755460B43F808C8E6002C00D0E5
:1015200081E043460B4315D1802000250003E3E60C
:101530005C1AA3429B41C71B5B420126FF1ADAE5F6
:101540004207DB081343C008D2E64207DB08134317
:10155000C008ACE643464246C9085B0755460B4304
:10156000D008C5E6434642465B07C9080B43D0088E
:10157000BEE603431C00631E9C41FCE60200203CC7
:10158000E24014006246202A03D04025AD1AA8404C
:101590000343581E8341234375E7002AE2D03A00F3
:1015A0000A43CDD04207DB0813438022C008120350
:1015B000104206D0FC08144203D12000CB087A0761
:1015C00013435A0FDB005207DB08134390E64346F0
:1015D0000B4300D109E743464246C9085B0755461D
:1015E0000B43D00866E6CC1AA14289413F1A494212
:1015F000554601267F1A7EE542465C1A871AA342A9
:1016000092415242BF1A3A023DD5CC1AA1428941B9
:10161000434649421F1A55467F1A95E57B07C9087C
:101620000B43F80843E64446DB080C4330D142073D
:101630001343C0085CE67B07C9080B43F80839E68A
:101640005C189C429B4140445B42C7183B0200D45B
:1016500025E61D4B01261F4021E60400203AD44018
:101660006246202A04D040226646921B90400343E3
:101670005A1E93411C437EE65C188C4289414044CB
:1016800049424718DDE623003B4300D1ADE606E6BC
:10169000440723438024C0082403204208D0424644
:1016A000D608264204D155463000CB0851070B43DB
:1016B0005A0FDB00DB085207134319E60023014AE7
:1016C0001F005EE5FF070000FFFF7FFFF0B55746F4
:1016D0004E464546DE46E0B5814605000C0348000F
:1016E00092461F0085B0240B400DCE0F002800D17C
:1016F00056E1D44B984200D172E16B0FE4001C43D9
:1017000080231B0423439846CF4BED009B460023C8
:101710009946834400933C037B005046240B5B0DA9
:10172000FF0F002B00D11FE1C64A934200D162E1B6
:10173000C549420F8C46E400594614438022634455
:101740001204CB1A14439B46C200002033007B4096
:101750009A464B460F2B27D8BC499B00CB589F4637
:10176000B246009B022B16D0032B00D18EE2012B38
:1017700000D0D9E000230024002552461B05234356
:10178000D20713432800190005B0F0BCBB46B2468F
:10179000A946A046F0BD00240025AA4BEDE7BA46B5
:1017A000A04615000090DCE7444500D2C7E100D117
:1017B000C2E101235B429C462E0040460025E344E3
:1017C0002302140E1C431B0C994623041F0C120207
:1017D000494600920197FEF743FD02007A430B044D
:1017E000310C804619438A4207D901235B429C464B
:1017F0000919E0448C4200D807E2881A4946FEF7EE
:101800002FFD09048C4631046646019A090C4243B7
:10181000030031438A4204D90919013B8C4200D8A4
:10182000EDE1881A424612041A4390464146009B55
:101830000E041B0C1F000293009B360C1B04190C9A
:101840000B007343120C7E43039151437A431F0CE8
:10185000BC4676186644B14203D9802149028C46C1
:101860006244310C8A1831041E04360C8E199042E1
:1018700002D312D1B54210D24346591E009B9C465A
:1018800065441F009D429B415B421B19C018844266
:1018900000D2A0E100D19BE18846AE1BB542AD412C
:1018A000801A6D42401B844200D1D5E14946FEF7C3
:1018B000D7FC019A0B044243310C050019438A42BC
:1018C00000D96CE1881A4946FEF7CAFC019A360431
:1018D00042430904360C03000E43B24200D953E1DF
:1018E0000398B61A02002D041D43029F2B041B0C03
:1018F0005A437B439C46290C4843130C844463445D
:101900007943984203D98020400284466144180CF0
:1019100012041B04120C41189B188E4200D2FFE0E7
:1019200000D1FAE001231D43494A5A44002A00DC51
:10193000AAE06B0700D03DE1ED084346DB0106D588
:101940004246444B1A4090468022D2005A44424BB1
:101950009A4200DD1FE743465B071D43434652059D
:101960005C02240B530D08E75246224300D17BE072
:10197000002C00D1FAE0200001F022FA02000B3A1C
:101980001D2301009B1A52460839DA408C4014434B
:1019900052468A40314B58449B4683440020D5E64A
:1019A0004B462343984644D0002C00D1CEE0200083
:1019B00001F006FA010002000B391D235B1A4946AB
:1019C0001000D940083884400B004D462343984608
:1019D00085402348831A9B460023994600939AE644
:1019E0004B46234398461DD108239946063B0025C4
:1019F000834600938FE65246224309D1022349468B
:101A00001943184B89469C4600240220E3449DE676
:101A100003234A461A43134B91469C4652460320E1
:101A2000E34493E60C239946093BA0468346009382
:101A300071E60423994600239B4601330025009359
:101A400069E6C046FF07000001FCFFFFBCE5020895
:101A5000FF030000FFFFFFFEFE070000F30300008E
:101A60000DFCFFFF01F8FFFF49460123194389469A
:101A7000002401206AE6002380249A4600258A4B30
:101A800024037AE601256D4201239B1A382B00DDE1
:101A900070E61F2B00DCBFE01F2149428A1A414635
:101AA000D1400A00202B04D04146804B5B44994032
:101AB0000D436B1E9D4107232A431D000024154042
:101AC000134200D1D4E00F2100231140042900D19A
:101AD000CBE0111D9142924152429B180A0019021B
:101AE00000D4C2E001230024002546E680234146BD
:101AF0001B03194208D01C4206D11C432403BA46DA
:101B00001500694B240B38E68024434624031C430C
:101B10002403B246644B240B2FE6002B00D103E7CD
:101B2000A619681EA64200D28DE08E4200D2A3E024
:101B300000D1B3E00500F5E6AA4200D939E64346F4
:101B4000DE0758086B081E43ED0739E6484601F0EA
:101B500037F901000200153120321C2900DC2CE786
:101B60004B46083883400025984632E701F028F9B3
:101B700003001A00153220301C2A00DC00E754460E
:101B8000083B00229C4005E73619013BB44200D9CE
:101B9000A6E6B24200D8A3E6831E3619A0E60919CC
:101BA000013D8C4200D98DE68A4200D88AE6851E26
:101BB000091987E60F232B40042B00D1BCE605232F
:101BC0005B42AB429B4104355B42ED089844B4E66E
:101BD000AF4200D960E6824204D800D05CE6AE4253
:101BE00000D859E602235B429C46009BE0449C4699
:101BF00065449D429B415B421B19C0184DE68A42D9
:101C000000D80EE6831E09190BE68A4200D8F4E5D7
:101C1000831E98460919F0E52549280059448D404E
:101C200042468A40691E8D414146D840D940024310
:101C30002A430B00510700D151E70F21114004291D
:101C400000D046E74BE705008E4200D06AE6009AD6
:101C5000934200D066E667E6164A5A44002A00DC42
:101C600010E701230025984467E65D075B021C0B23
:101C7000D2080023154380E50098023D42008242CD
:101C8000BF417F423C1936190092DDE7802443466C
:101C900024031C432403044B240B6EE5009A9A4250
:101CA000EAD30500D3E7C046FF0700003E0400006A
:101CB0001E040000FF030000F0B54E464546DE4618
:101CC00057469046E0B517001A03120B05008446EC
:101CD00019480E034C0091465A00DB0F9B46360B09
:101CE000640DC90F520D844219D0824210D00120D8
:101CF00094420ED14E450CD10120C44509D159451D
:101D000017D0002C05D130002843431E984100E035
:101D10000120F0BCBB46B246A946A046F0BD330048
:101D200001202B43F5D1A242F3D14B463B43F0D1E6
:101D3000E2E70020EDE7C046FF070000F0B54746A8
:101D4000CE460400180016001B031B0B2D4D4A0045
:101D5000994680B543000F03A446B0463F0B520D91
:101D6000C90F5B0DC00FAA4221D0AB4213D0002A8D
:101D700022D13C43002B02D14D462E4322D0002CD1
:101D800010D0814222D00220013908400138C0BC65
:101D9000B946B046F0BD4D462E4329D1002AF0D1B8
:101DA0003C43EED10028F2D101204042EFE73D0054
:101DB00025431DD19342EED0002BE2D14C46264361
:101DC000DFD1E0E70020002CE1D0DCE79A420ADC1A
:101DD000E8DB4F45D7D80ED000204F45D7D2002999
:101DE000E2D00800D3E74342584140000138CEE733
:101DF00002204042CBE7C445C5D80020C445C6D226
:101E0000EDE7C046FF070000F0B54746CE460400A8
:101E1000180016001B031B0B2C4D4A00994680B579
:101E200043000F03A446B0463F0B520DC90F5B0D94
:101E3000C00FAA420DD0AB4210D0002A27D13C439C
:101E4000002B11D14D462E430ED10020002C15D071
:101E50000EE03D00254310D1934218D14D462E434C
:101E60000BD1002A02D13C43002C0BD0814214D06C
:101E7000022001390840013800E00220C0BCB94608
:101E8000B046F0BD0028F9D101204042F6E7002B12
:101E9000ECD14C462643E9D1EAE79A4204DD4342BD
:101EA000584140000138E9E79A42EBDB4F45DFD863
:101EB00006D000204F45E1D20029E5D00800DDE73B
:101EC000C445D5D80020C445D8D2F5E7FF070000A7
:101ED000F0B557464E464546DE46E0B598460C03FB
:101EE0004B000600924687B0240B5B0DCF0F002BF2
:101EF00000D15CE1D94A934200D175E1420FE40080
:101F00001443802212041443D54AC5009446634406
:101F10000093002399469B46434642461E03D20F38
:101F20005B0050469046360B5B0D00D120E1CB4A5A
:101F3000934200D162E1CA49420F8C460099634442
:101F4000F6008C46164380229C44120463461643D6
:101F5000C200002000930099434601318C46494657
:101F60007B4001930F2926D8BE4B890059588F46D4
:101F7000434601933400150083465B46022B16D07E
:101F8000032B00D103E2012B00D0CDE0002200247E
:101F90000025019B12052243DB071A43280011008C
:101FA00007B0F0BCBB46B246A946A046F0BD00242F
:101FB0000025AA4AEDE7280C2D042D0C2B00110C4E
:101FC0001204120C5343984613002F0043439946C2
:101FD0004F434F44BB4647460B003F0CBA46434372
:101FE000DA440293D14504D980277F02B9464B4495
:101FF000029353461B0C9B4653461F0443461B0447
:102000001B0C98463B0043440493330C3604360CB7
:102010009846330043439946434643432F009A462C
:10202000434677435D43380C4D444519A94503D9D0
:1020300080235B029946CA443F04280C3F0C2D04C0
:10204000ED19270C2404240C0300200050437A438C
:1020500091463A0053440593030C9A464A43614320
:1020600049445144AB44894503D980235B029946D6
:102070004A4400040B0C000C09040918200099467E
:10208000434670435C437E435F43030C9846A41968
:1020900044444A440397A64204D980235B029846ED
:1020A000474403972304029E9A46059B5E44984644
:1020B000AE42AD4176188E4289410004000C504476
:1020C00040446D424719B846934649428946C34445
:1020D000D94498428041A845AD41934592418945F4
:1020E00089416D4240422843240C524249420A43EE
:1020F000039B00198018C7184B46DC0D049B750222
:102100001D436A1E95414B46F60D7F0235435A0228
:102110003C431543FB0100D41CE101216A080D403A
:102120001543E207154364084F496144002900DC68
:10213000B0E06B0709D00F222A40042A05D02A1DDF
:10214000AA42AD416D4264191500E30104D5802116
:10215000464AC90014406144454A914200DD26E7E1
:102160006207ED08640249051543240B4A0D10E788
:102170005246324300D17FE0002E00D1DCE0300037
:1021800000F01EFE02000B3A1D2301009B1A52466E
:102190000839DA408E40164352468A40009B354942
:1021A000181A03008C46634400200093D3E62500F0
:1021B00005434AD0002C00D1B0E0200000F000FE22
:1021C000010002000B391D2310005B1A310035009D
:1021D00008388440D94085400C432648831A009330
:1021E000002399469B4697E60500254326D1082201
:1021F00000930223002491469B468DE65246009BA5
:10220000324310D1154900268C4663444946009359
:1022100002231943894602209DE65B460197022B63
:1022200000D0ADE6C3E60D4A0320944663444A4617
:10223000009303231A43914652468CE60C220093E6
:102240000323050091469B4666E604239946002336
:102250000093013300249B465EE6C046FF07000062
:1022600001FCFFFFFCE50208FF030000FFFFFFFE8B
:10227000FE0700000DFCFFFF494601231943894674
:102280000026012067E6002380240025434A0193AD
:1022900024037EE60120401A382800DD76E61F2858
:1022A0005BDD1F2223005242511ACB401900202827
:1022B00003D03B4A6244944025436A1E95412A005C
:1022C0000A4307210D000024154011425BD00F2165
:1022D00000241140042953D0111D914292415242D1
:1022E000A4180A0023024BD501220024002550E641
:1022F00080231B031C4209D01E4207D133431C0319
:1023000043461500240B254A019342E6802212031E
:1023100014432403214A240B01973AE600F050FDB0
:1023200001000200153120321C2900DC4BE734008B
:1023300008380025844050E700F042FD03001A00F1
:10234000153220301C2A00DC1EE75646083B0022CE
:102350009E4023E7009B9C46E6E61249220061442A
:102360002E008D408A40C640691E8D4132432A436B
:10237000C4405307B6D00F2111400429ACD1B1E7B6
:1023800065076402240BD2081543002201E680226F
:10239000120314432403014A240BFAE5FF0700004B
:1023A0003E0400001E040000F8B557464E46454660
:1023B000DE46E0B51E0017004A000B03520D5B0A13
:1023C0009046420F1A43CD0FCD4C3103C3009446C3
:1023D00070007A0F490AFF009A46B946400DF60F81
:1023E0001143A04200D1B1E001225640B346B542AC
:1023F00000D188E04246121A002A00DCAEE0002834
:1024000000D1C1E0BE48804500D151E180200004E8
:102410000143382A00DD7BE11F2A00DDEEE12020A8
:102420003E00801A0C00D640D1408740624684406E
:10243000521A781E8741944634432743DC1BA3423B
:102440009B4162465B42D31A99464B461B0200D41D
:1024500018E14B465802430A99464B46002B00D1DF
:1024600037E1484600F0ACFC010008392023220087
:1024700048465B1ADA4088408C4043461043884502
:1024800000DD36E1C91A4B1C1F2B00DDEAE02022DB
:102490002600D21A01009440DE40D840002391402B
:1024A000621E94418146984631430C43630709D02C
:1024B0000F232340042B05D0231DA342A4416442D3
:1024C000A1441C004B461B0200D4DEE041468C4B6D
:1024D0000131994200D1E7E04B468A48E4080340C5
:1024E000180049055B07400223434A0D040B1205FF
:1024F000ED0722432A4318001100F0BCBB46B24648
:10250000A946A046F8BD4246121A002A52DD00280C
:1025100000D19CE0A04500D1CAE080200004014326
:10252000382A00DD49E11F2A00DC97E110000E0087
:102530002038C640202A04D04020821A91400F4300
:10254000B9464C46621E944134433AE10A003A438C
:1025500028D0B346B5422BD06B4A4244002A5DD006
:1025600042464446821A002C00D0F5E065461D43E1
:1025700000D19CE1551E012A00D1FBE1604CA24232
:1025800000D1BDE12A00F0E00800384300D1C3E0EB
:10259000501E012A00D1A8E1594CA24200D187E087
:1025A000020036E701225640B346B54200D021E78B
:1025B000554A4244002A00D1B5E042464446821AB8
:1025C000002C00D138E14E4EB04200D1DEE1802631
:1025D000644636043443A446382A00DD96E11F2AB7
:1025E00000DD24E22026B41AA24664465646B440D2
:1025F000A1461C004E46D440264334005646B34004
:102600005E1EB3411C436346D340C918E419BC4263
:10261000BF417F42B94680468944D8E040463B4CA2
:102620000130204200D0B4E04046002800D044E110
:102630006046184300D190E10800384300D0AAE179
:102640006146DB0849070B436146CC0827E00800D8
:10265000384361D0501E012A00D139E1A24227D06F
:1026600002005DE702001F39CA401100202B03D091
:102670004022D31A98400443631E9C41002399468C
:1026800098460C43630700D012E74B464A46E408DD
:102690005B072343D408424619498A420ED02403DB
:1026A0005205240B520D22E70A00002400231EE7E6
:1026B000DB086246520713436246D4081A002243DD
:1026C00000D1FCE180221203144324030C4A240BA2
:1026D0000DE7200000F074FB010018311F2900DC19
:1026E000C4E608388440434620000024884500DCC6
:1026F000C8E6044A5B1A104098468146D6E6C046B2
:10270000FF070000FFFF7FFF01F8FFFFFE0700004B
:102710000F437A1E974191E66146DB0849070B4358
:102720006146CC08B8E74046D34C0130204200D087
:10273000A2E04046002800D001E16046184300D1E5
:102740005EE10800384300D05FE16146DB084907DD
:102750000B436146CC08A2E7C84DA84200D1CFE0A8
:10276000802564462D042C43A446382A56DC1F2AB3
:1027700000DDD1E020251E00AD1A6446AB40AC4020
:10278000D6405D1EAB41344323436446D440091B0D
:1027900049E06046DC1B461AA34280414042814624
:1027A00030004E46801B8146000276D44B462343C0
:1027B00000D052E60024002571E739430C00621E68
:1027C0009441E4189C429B415B42634499464B46CA
:1027D0001B0200D456E701239C46A84BE0449845D1
:1027E00038D04B46A6480122034018006308144025
:1027F0001C43C3071C434308994657E610000E00CC
:102800002038C640202A04D04020821A91400F432D
:10281000B9464F467A1E974137430FE662461A4340
:1028200013005A1E9341FC1AA742BF417F42CB1BA3
:1028300099465D46804608E666461E4300D1BEE0E6
:10284000561E012A00D109E18C4CA24200D119E1A7
:102850003200C1E642460024002348E620200C0056
:10286000801A3E0087408440D640781E8741D14080
:1028700034433C438C44A4E7804A904200D1E9E0D1
:10288000DF199F429B4161445B42C918CC077F0816
:102890004B08994680463C43F4E6FC1AA742BF41E8
:1028A00063467F42C91ACB1B99465D46D5E5FF08B2
:1028B0004B075D463B43CC08EEE662461A4300D028
:1028C00082E00B003B431BD1802400252403F9E662
:1028D000DC199C429B41614489465B4299444B46CA
:1028E0001B0244D401239846CCE6DC1B6246A3427B
:1028F0009B41511A5B42CB1A994601239846A4E5A5
:10290000FF084B075D463B43CC08D7E662461A43B7
:102910001400631E9C4179E615006446203DEC409E
:10292000A046202A05D040256446AA1A9440234395
:102930009A465446631E9C414346234373E76246CE
:102940001A4323D00A003A4300D0A0E06246DB08D5
:10295000520713436246D408B0E60B003B4300D154
:1029600028E7FF084B075D463B43CC0897E6022368
:10297000984636E7FC1AA742BF4163467F42C91A10
:10298000CB1B994601235D4698465EE54B07FF0841
:102990003B43CC0892E6DC1B6046A342B641401A9A
:1029A0007642801B8146000260D5FC1AA742BF41D7
:1029B00063467F42C91ACB1B99465D4676E5FF0800
:1029C0004B073B43CC0867E60A00DB083A4300D1DB
:1029D0006FE66246520713436246D4088022120310
:1029E000144207D0C808104204D15D460400FB0819
:1029F00049070B435A0FDB00DB08520713435DE620
:102A00004B07FF083B43CC0849E6DC199C429B413D
:102A1000614489465B4299444B461B0200D431E62F
:102A20004A46174B1A400123914698462AE616005B
:102A30006446203EF440A046202A05D04026644645
:102A4000B21A944023439A465446631E9C4143461F
:102A50001C43DBE502000024002348E5DC19BC42EE
:102A6000BF41614489467F42B94438E74B4623431E
:102A700000D19FE606E6C046FE070000FF07000003
:102A8000FFFF7FFFFF084B073B43CC0816E662467B
:102A9000DB08520713436246D40880221203144213
:102AA00007D0C808104204D15D460400FB0849075E
:102AB0000B435A0FDB005207DB081343FEE50023EC
:102AC000014A1C0013E5C046FF07000070B5050071
:102AD0000C481C0316005B000A034900120B490D49
:102AE000240B5B0D814208D0064A0020934203D19B
:102AF00020003043431E984170BD01202A43FBD182
:102B0000F2E7C046FF0700000A0030B5134C53003F
:102B100009030500090B00205B0DD20FA34204DD61
:102B20000F48834202DD0F4BD01830BD8020400398
:102B300001430D48C01A1F2808DD0C48C31AD940AC
:102B40000B005842002AF0D11800EEE7084CC540AF
:102B5000A446634499400B002B43F2E7FE030000B8
:102B60001D040000FFFFFF7F33040000130400007A
:102B7000EDFBFFFF70B5002816D0C317C5185D40E8
:102B8000C40F280000F01CF9114A121A0A2816DC9A
:102B900003002E0015339E400B23181AC540520522
:102BA0002D032D0B530D03E00024002300250026E8
:102BB0001B052B43E40723433000190070BD0B387D
:102BC000854052052D0300262D0B530DF0E7C0461E
:102BD0001E04000010B5041E10D000F0F1F80F4BD9
:102BE0001B1A0A2811DC0B222100121AD1401530C1
:102BF0000A035B058440120B5B0D01E000230022F9
:102C00001B0513432000190010BD22000B38824021
:102C10005B0512030024120B5B0DF1E71E0400009C
:102C200070B543004602C40FFE201B0E591C750AE6
:102C300008420CD0E022920094466D07360B6344A4
:102C40001B053343E40723432800190070BD002B04
:102C500014D1002D1BD0280000F0B2F80A281CDC8B
:102C60000B232E001B1ADE40030015339D400E4A35
:102C70003603121A5205360B530DE1E7002D09D029
:102C80008022360B1203094B6D071643D8E7002349
:102C90000026D5E70026054BD2E703000B3B9D40FD
:102CA0002E000025E3E7C04689030000FF0700006F
:102CB00002004B00F0B55B0D0C033D4E640A400F63
:102CC0005F1CC90F0443D50037420AD039481E188B
:102CD000FE2E16DDFF200024C0052043C90708434F
:102CE000F0BD002B06D12C4326D005229201540AB8
:102CF000D8B2F1E72543EDD08020C0030443FF2084
:102D0000EAE7002E1BDD9201531E9A41E4006D0F8D
:102D100022432A43530748D00F231340042B00D0EB
:102D200004328023DB0413403FD0701CFE2ED1D030
:102D30009201540AC0B2CFE700200024CCE7320051
:102D4000173222DB8020000420431E24A41B1F2CEA
:102D50001DDD02225242961B0200F2401600202C7A
:102D600004D0154A94466344984005432A00531EF4
:102D70009A41324300265307CED180241300E40445
:102D8000012023402242D3D1B0E70023ADE70B4A14
:102D900094462A00E24014002A0063449A40984076
:102DA000551EAA4102432243E4E733009EE7C04692
:102DB000FE07000080FCFFFFA2FCFFFF82FCFFFF7C
:102DC0001C2101231B04984201D3000C10391B0A5B
:102DD000984201D3000A08391B09984201D300091F
:102DE000043902A2105C40187047C0460403020276
:102DF00001010101000000000000000010B50029E1
:102E000003D1FFF7DDFF203002E00800FFF7D8FF15
:102E100010BDC04680B500AFBFF34F8FC046044B16
:102E2000044ADA60BFF34F8FC046C046FDE7C04694
:102E300000ED00E00400FA0580B582B000AF0200AA
:102E4000FB1D1A70FB1D1B78112B27D0FB1D1B7857
:102E5000052B23D0FB1D1B78192B1FD0FB1D1B78C6
:102E6000172B1BD0FB1D1B780F2B17D0FB1D1B78BE
:102E70001A2B13D0FB1D1B781B2B0FD0FB1D1B78AF
:102E8000182B0BD0FB1D1B780E2B07D0FB1D1B78BE
:102E9000132B03D0FB1D1B78062B01D1462300E02A
:102EA00047231800BD4602B080BD000080B582B047
:102EB00000AF0200FB1D1A70FB1D1B785A1E05494E
:102EC0001300DB009B1A5B005B5ADBB21800BD46A7
:102ED00002B080BD00000020F0B587B000AFB9603F
:102EE00011007B600F257B19021C1A700C26BB1980
:102EF0000A1C1A801523FC1828220823D318DB1972
:102F00001B781800FFF7D2FF0300237017243B192A
:102F100001221A707B191B78180015F04FFB031E55
:102F20004CD07B191A782A4B9200D3587A6811003A
:102F3000180015F007FD031E40D11523FB181B7860
:102F40001800FFF779FF0300472B0ED17B191B7880
:102F5000180015F033FB3C19BB191A88BB6819001F
:102F60001EF0B0F80300237028E01623FB1800229F
:102F70001A701AE00F23FB181B78180015F01EFBBF
:102F80001723FC18BB68012219001EF09BF80300F0
:102F90002370BB680133BB60022018F081FF16214B
:102FA0007B181A787B1801321A701623FB181B78CD
:102FB0009BB20C22BA1812889A42DBD80A2018F069
:102FC0006FFF1723FB181B781800BD4607B0F0BD34
:102FD0003C22002080B500AF00F010F800F042F86D
:102FE00000F0ACF800F03AF900F046FA00F074FB9B
:102FF00000F0E8FCC046BD4680BD000080B582B050
:1030000000AFFB1D00221A70BB1D01221A7019E0CF
:10301000BB1D1B789BB2013398B2BB1D1B78013BD3
:103020005A000E4BD318190011F052FDBB1D1B782E
:10303000192B02D9FB1D0A221A70BB1D1A78BB1D61
:1030400001321A70064B1B78BA1D12789A42DFD9EA
:10305000FB1D1B781800BD4602B080BD7C440020DB
:10306000A000002090B583B000AFFB1C00221A70B6
:10307000BB1D00221A803B0000221A807B1D00220B
:103080001A704BE03B1D01221A7033E0BB1D1B88F8
:103090001C339BB23A001100180011F019FD3B00DF
:1030A00018887B1D1A783B1D1978C4B2214813007B
:1030B0009B009B185B00C318221C5A543B001B88C2
:1030C0001B0A98B27B1D1A783B1D1B78591EC4B28F
:1030D000184813009B009B185B00C318221C5A540D
:1030E000BB1D1A88BB1D01321A803B1D3A1D127888
:1030F00002321A703B1D1B78092BC7D97B1D1A7829
:103100000C4913009B009B185B00CB18093300226D
:103110001A707B1D1A787B1D01321A70064B1B78C2
:103120007A1D12789A42ADD9FB1C1B781800BD4657
:1031300003B090BD1C170020A000002090B583B004
:1031400000AFFB1C00221A70BB1D00221A803B003E
:1031500000221A807B1D00221A707B1D00221A702B
:1031600015E0BB1D1B88CB3398B27B1D1B785A0022
:10317000374BD318190011F0ABFCBB1D1A88BB1DCF
:1031800001321A807B1D1A787B1D01321A70314B77
:103190001B787A1D12789A42E3D37B1D00221A70A5
:1031A0004BE03B1D01221A7033E0BB1D1B88993395
:1031B0009BB23A001100180011F08AFC3B001888FD
:1031C0007B1D1A783B1D1978C4B2234813009B005D
:1031D0009B185B00C318221C5A543B001B881B0A17
:1031E00098B27B1D1A783B1D1B78591EC4B21A4831
:1031F00013009B009B185B00C318221C5A54BB1D74
:103200001A88BB1D01321A803B1D3A1D127802320A
:103210001A703B1D1B78092BC7D97B1D1A780E49E4
:1032200013009B009B185B00CB18093300221A7017
:103230007B1D1A787B1D01321A707B1D1B78092BB0
:10324000AFD9FB1C1B781800BD4603B090BDC0462B
:1032500040170020A0000020B0160020F0B589B073
:1032600002AF0B23FB1800221A703B1D00221A80AC
:10327000BB1C00221A8008217B1800221A80BB1D6B
:1032800000221A801726BB1900221A7000233B6106
:103290000023FB600D007C183B1D1900E42011F099
:1032A00017FC030023807B191B88002B03D13B1DD7
:1032B0001A88BB191A7008257C193B1D1900E520D6
:1032C00011F006FC03002380BC1DBB1C1900E62086
:1032D00011F0FEFB030023807B191B88002B0AD111
:1032E000BB1D1B88002B06D13B1D1B881B04BA1C71
:1032F00012889B183B6108257C193B1D1900E720AB
:1033000011F0E6FB03002380BC1DBB1C1900E82064
:1033100011F0DEFB030023807B191B88002B0AD1F0
:10332000BB1D1B88002B06D13B1D1B881B04BA1C30
:1033300012889B18FB6008257C193B1D1900E920A9
:1033400011F0C6FB030023807B191B88002B0BD1D7
:103350003B1D1B881B0A9BB2DAB2414B1A703B1D06
:103360001B88DAB23F4B1A7008257C193B1D1900E7
:10337000EA2011F0ADFB030023807B191B88002B92
:103380000BD13B1D1B881B0A9BB2DAB2364B1A705D
:103390003B1D1B88DAB2354B1A7008257C193B1D82
:1033A0001900EB2011F094FB030023807B191B888C
:1033B000002B0BD13B1D1B881B0A9BB2DAB22C4B96
:1033C0001A703B1D1B88DAB22A4B1A70244B1B78EB
:1033D000002B11D0234B1B78002B0DD0204B1D78D8
:1033E000204B1B78FC6839691722BA1810780093B3
:1033F0002B00220007F0B4FB1B4B1B78002B11D0D5
:103400001A4B1B78002B0DD0174B1D78174B1B78D0
:10341000FC6839691722BA18107800932B00220033
:1034200007F09EFB124B1B78002B11D0114B1B7821
:10343000002B0DD00E4B1D780E4B1B78FC683969A4
:103440001722BA18107800932B00220007F088FB8F
:103450000B23FB181B781800BD4607B0F0BDC04613
:10346000591900205A1900205B1900205C1900200E
:103470005D1900205E190020F0B585B000AF0F2364
:10348000FB1800221A700C26BC1908257A198A2309
:103490005B001100180011F01BFB03002380BB1917
:1034A0001B88002B0CD17B191B88DAB2854B1A7054
:1034B0007B191B881B0A9BB2DAB2824B5A7007E059
:1034C000814B1A787F4B1A707F4B5A787D4B5A701C
:1034D0000C26BC1908257A198E235B0011001800F0
:1034E00011F0F6FA03002380BB191B88002B0ED1C4
:1034F0007B191B881BB29BB2DB0BDAB2714B1A71C2
:103500007B191B885B089AB26E4BDA8007E06E4B22
:103510001A796C4B1A716C4BDA886A4BDA800C257D
:103520007C190826BA191623FF331100180011F070
:10353000CFFA030023807B191B88002B04D1BB1911
:103540001A88624B1A8003E0614B1A885F4B1A801D
:103550000C257C190826BA198B235B001100180072
:1035600011F0B6FA030023807B191B88002B04D1CD
:10357000BB191A88554B5A8003E0554B5A88534B58
:103580005A800C26BC1908257A191823FF3311001C
:10359000180011F09DFA03002380BB191B88002B33
:1035A0000CD17B191B88DAB2484B1A717B191B8826
:1035B0001B0A9BB2DAB2454B5A7107E0444B1A79A9
:1035C000424B1A71424B5A79404B5A710C257C1967
:1035D0000826BA198C235B001100180011F078FA44
:1035E000030023800A23FC18BA1D1A23FF3311009D
:1035F000180011F06DFA030023807B191B88002B43
:103600000ED10A23FB181B88002B09D1BB191B887C
:103610001A00BB1D1B881B041A432C4B9A600CE03C
:103620002C4B1B78002B04D0284BE12252029A60CD
:1036300003E0274B9A68254B9A600C26BC19082595
:103640007A198D235B001100180011F041FA030074
:103650002380BB191B88002B0CD17B191B88DAB285
:103660001A4B1A737B191B881B0A9BB2DAB2174BD1
:103670005A7305E0154B18225A73144B00221A7323
:103680000C257C190826BA191C23FF3311001800D9
:1036900011F01EFA030023807B191B88002B05D133
:1036A000BB191B88DAB2094B9A7603E0084B9A7E65
:1036B000064B9A760F23FB181B781800BD4605B001
:1036C000F0BDC0462016002038000020281600203B
:1036D0001C00002058190020F0B5D6464F4646463B
:1036E000C0B588B006AFBB1D00221A703B00002297
:1036F0001A803B1D00221A80FB1C00221A70FB1D41
:1037000000221A704CE1FB1D1B783B339BB29B00DF
:103710009BB23C1D3A001100180011F0D9F90300CA
:1037200023803B1D1B88002B00D034E13B001B880D
:103730001B0A9AB2FB1C1A70FB1C1B781B09DBB21C
:103740001A00FB1D1B7801339A4200D023E1FB1CB9
:103750001B780F22134000D11DE1FB1D1B785A1C62
:10376000FB1C1B780F210B40D8B295491300DB00DE
:103770009B18CB180133021C1A703B001988FB1DE3
:103780001B785A1CC8B28E491300DB009B18CB185B
:103790000833021C1A70FB1D1B783B339BB29B0045
:1037A0009BB201339BB23A001100180011F090F95E
:1037B0003B001B881B0A99B2FB1D1B785A1CC8B220
:1037C0007F491300DB009B18CB180233021C1A70D0
:1037D0003B001988FB1D1B785A1CC8B2784913009E
:1037E000DB009B18CB180533021C1A70FB1D1B78DD
:1037F0003B339BB29B009BB202339BB23A00110059
:10380000180011F065F93B001B881B0A99B2FB1DDB
:103810001B785A1CC8B26A491300DB009B18CB18EE
:103820000333021C1A703B001988FB1D1B785A1CBD
:10383000C8B263491300DB009B18CB180633021C87
:103840001A70FB1D1B783B339BB29B009BB203336A
:103850009BB23A001100180011F03AF93B001B88A6
:103860001B0A99B2FB1D1B785A1CC8B2544913009D
:10387000DB009B18CB180433021C1A703B0019881C
:10388000FB1D1B785A1CC8B24D491300DB009B1866
:10389000CB180733021C1A70FB1D1B785A1C4849B1
:1038A0001300DB009B18CB1801331A78FB1D1B7823
:1038B0000133DBB21900100012F068FBFB1D1B780E
:1038C0000133DBB29C46FB1D1B785A1C3C4913009C
:1038D000DB009B18CB1808331B7801221340DBB2A6
:1038E0009846FB1D1B785A1C35491300DB009B18BA
:1038F000CB1808331B785B10DBB201221340DBB21C
:103900009946FB1D1B785A1C2D491300DB009B18A0
:10391000CB1802331B789A46FB1D1B785A1C28498A
:103920001300DB009B18CB1803331978FB1D1B78A1
:103930005A1C23481300DB009B18C3180433187863
:10394000FB1D1B785A1C1E4C1300DB009B18E31850
:1039500005331C78FB1D1B785A1C194D1300DB0026
:103960009B18EB1806331D78FB1D1B785A1C144E50
:103970001300DB009B18F31807331B780022059215
:103980000493039502940190009153464A464146A0
:10399000604612F02FFDFB1D1A78FB1D01321A70D4
:1039A000FB1D1B78052B00D8ADE6BB1D1B7818004E
:1039B000BD4602B0E0BCBA46B146A846F0BDC0461E
:1039C0001041002090B585B000AF0F23FB180022F6
:1039D0001A706F4BBB60322020F06CF803003B6024
:1039E0003B68002B01D1FB23CEE0BB681B78FE2B8C
:1039F00001D0FF23C8E0FB1D00221A70B8E00F239E
:103A0000FB1800221A7010E0BB685A1CBA6019003B
:103A10000F203B181B783A68D3180A78D2B21A7074
:103A20003B181A783B1801321A700F243B191B7887
:103A3000132BE9D9FB1D1A7813009B009B189B00E0
:103A4000544A98183B6801331422190020F058FAA0
:103A50003B6814220021180020F05BFA3B19002279
:103A60001A70BB681433BB600FE0BA680F203B18B4
:103A70001B783968CB1812781A70BB680133BB60A9
:103A80003B183A18127801321A70BB681B78FE2B6B
:103A900008D0BB681B78FF2B04D00F23FB181B78C2
:103AA000312BE2D90F217B181B78013B3A68D318E0
:103AB0001B78002B04D07B187A18127801321A7008
:103AC0000F23FB181A78FB1D1C7810001FF0F2FF63
:103AD000030019002F4A23009B001B199B00D318D9
:103AE0000C331960FB1D1A782A4913009B009B18A0
:103AF0009B00CB180C331B68002B12D1FB1D1A78CE
:103B000013009B009B189B00224A9B181422002143
:103B1000180020F0FEF93B6818001FF0D5FF0E23B7
:103B200032E0FB1D1A781B4913009B009B189B0079
:103B3000CB180C3318680F243B191A783B6819000E
:103B400020F0DEF9144B1B780133DAB2124B1A70F5
:103B50003B191A783B680021180020F0DAF9BB689D
:103B60001B78FE2B0AD1FB1D1A78FB1D01321A703F
:103B7000FB1D1B78042B00D841E700E0C0463B68E2
:103B800018001FF0A1FF00231800BD4605B090BD2E
:103B900000100408B81900201C1A002080B582B05B
:103BA00000AFFB1D00221A70BB1D01221A7021E01C
:103BB000BB1D1B785A1E154B5200D35A002B0DD03B
:103BC000BB1D1B789BB2013398B2BB1D1B785A1EDC
:103BD0000E4B5200D35A190010F0DAFFBB1D1B78B0
:103BE000192B02D9FB1D0A221A70BB1D1A78BB1DA6
:103BF00001321A70064B1B78BA1D12789A42D7D937
:103C0000FB1D1B781800BD4602B080BD7C4400201F
:103C1000A000002090B583B000AFFB1C00221A70FA
:103C2000BB1D00221A803B0000221A807B1D00224F
:103C30001A7048E07B1D1A78294913009B009B18D5
:103C40005B005B5C002B39D03B1D01221A7031E018
:103C50007B1D1A783B1D1B78591E214813009B00C1
:103C60009B185B00C3185B5C9BB21B0299B27B1D67
:103C70001A783B1D18781A4C13009B009B185B00A8
:103C8000E3181B5C9AB23B008A181A80BB1D1B8884
:103C90001C339AB23B001B881900100010F078FF0B
:103CA000BB1D1A88BB1D01321A803B1D3A1D1278BC
:103CB00002321A703B1D1B78092BC9D97B1D1A785B
:103CC0007B1D01321A70074B1B787A1D12789A42BD
:103CD000B0D9FB1C1B781800BD4603B090BDC04690
:103CE0001C170020A0000020F0B587B000AFB9601D
:103CF0007A6019000F243B19021C1A700E257B19DB
:103D00000A1C1A701726BB1900221A703B191B785F
:103D10009BB21900E42010F03BFFBB681B0A9BB26A
:103D20001900E52010F034FFBB689BB21900E620B3
:103D300010F02EFF7B681B0A9BB21900E72010F0E1
:103D400027FF7B689BB21900E82010F021FF7B1948
:103D50001B789BB21B029AB2202310241B19DB197B
:103D60001B789BB2D3189BB21900E92010F010FF0A
:103D700024231B19DB191B789BB21B029AB2282340
:103D80001B19DB191B789BB2D3189BB21900EA20D0
:103D900010F0FEFE2C231B19DB191B789BB21B02B3
:103DA0009AB230231B19DB191B789BB2D3189BB234
:103DB0001900EB2010F0ECFEBB191B781800BD4673
:103DC00007B0F0BD80B582B000AFFB1D00221A70B5
:103DD000384B5B785B011AB2364B1B781BB213432E
:103DE0001BB29AB28A235B001100180010F0D0FEBB
:103DF000304B1B79DB031AB22E4BDB881BB213430B
:103E00001BB29AB28E235B001100180010F0C0FEA6
:103E1000294B1A881623FF331100180010F0B8FE42
:103E2000254B5A888B235B001100180010F0B0FE60
:103E3000214B5B791B021AB21F4B1B7B1BB2134336
:103E40001BB29AB21823FF331100180010F0A0FE25
:103E5000194B9B689AB28C235B001100180010F07C
:103E600097FE154B9B681B0C9AB21A23FF33110067
:103E7000180010F08DFE104B5B7B1B021AB20E4B2C
:103E80001B791BB213431BB29AB28D235B00110046
:103E9000180010F07DFE084B9B7E9AB21C23FF3366
:103EA0001100180010F074FEFB1D1B781800BD46B1
:103EB00002B080BD201600202816002080B582B0F8
:103EC00000AFFB1D00221A701B4B042200211800BA
:103ED00020F01FF8BB1D01221A7021E0BB1D1B78CA
:103EE0005A1E154B5200D35A002B0DD0BB1D1B7808
:103EF0009BB2013398B2BB1D1B785A1E0E4B520069
:103F0000D35A190010F044FEBB1D1B78192B02D99F
:103F1000FB1D0A221A70BB1D1A78BB1D01321A70D4
:103F2000064B1B78BA1D12789A42D7D9FB1D1B7815
:103F30001800BD4602B080BD7C440020A0000020D7
:103F400080B500AF074B1B68074A934206D010F0BC
:103F500051FE031E02D1034B034A1A60C046BD4600
:103F600080BDC046F07F0020ADDEEFBEB0B58EB0A4
:103F700002AF1423F8180A257A191823F918082310
:103F8000FB1800930300012011F092FA0C23F8189B
:103F9000BA1D1023F9183B1D00930300022011F0F5
:103FA00087FA1C217B1801225A607B1800229A6034
:103FB0007B191B881A007B181A60BB691A000C0059
:103FC0007B181900100019F013FF21007B18002244
:103FD0005A607B1802229A603B1D1B881A007B18CE
:103FE0001A60FB681A007B181900100019F000FF16
:103FF000BB6918007B191B88002219001AF059F9B7
:10400000052013F099FEFB681A003B1D1B88190060
:1040100010001AF031F9031E17D1BB6918007B1983
:104020001B88012219001AF044F9052013F084FEC0
:10403000FB681A003B1D1B88190010001AF01CF9C0
:104040000300012B01D1012300E000231800BD462D
:104050000CB0B0BD90B585B000AF78600F23FB18F1
:1040600000221A701CE00F243B191A781149130022
:104070005B009B189B00CB1808331A687B68110003
:104080001800FCF741F8031E04D13B191B780133DB
:10409000DBB20BE00F217B181A787B1801321A7003
:1040A0000F23FB181B780C2BDDD900231800BD460D
:1040B00005B090BD7002002080B584B000AF78607C
:1040C0000F23FB1800221A7041E0264A7B6811007A
:1040D0001800FCF719F8031E01D101233DE0224A24
:1040E0007B6811001800FCF70FF8031E01D10223B2
:1040F00033E01E4A7B6811001800FCF705F8031E28
:1041000001D1032329E01A4A7B6811001800FBF74C
:10411000FBFF031E01D104231FE0164A7B68110038
:104120001800FBF7F1FF031E01D1052315E0124A29
:104130007B6811001800FBF7E7FF031E01D106237F
:104140000BE00F217B181A787B1801321A700F23AD
:10415000FB181B78052BB8D900231800BD4604B006
:1041600080BDC04680B4020884B4020888B4020846
:104170008CB4020890B4020894B4020890B583B0DD
:1041800000AFFB1D01221A7020E0574B1B78FA1D6F
:1041900012789A4206D1FB1D1B78013B534A00213D
:1041A000D1540EE0504B1A78FB1D1B785C1EFB1D92
:1041B0001B781900100000F081FA03001A004B4B25
:1041C0001A55FB1D1A78FB1D01321A70FB1D1B7856
:1041D000022BDAD913F08EFA13F048FC10F036F9FE
:1041E00010F0EAFF0FF054FD13F00CFD10F04AF848
:1041F00013F042FD11F0AEF8031E03D0FFF7A0FE4E
:10420000FEF708FEFFF7B2FE031E21D0384B012255
:104210001A70322013F090FD0EF06EFB354BE12248
:1042200052029A60BB1D01221A700CE0314B9A6851
:10423000BB1D1B781100180014F0A0F9BB1D1A78E3
:10424000BB1D01321A70BB1D1B78052BEED904E093
:10425000322013F071FD0EF04FFBFEF7BBFE0FF0A6
:1042600085FD214B1B78002B11D1234B0122082106
:1042700018001AF01EF8FA235B00180013F05CFD1A
:104280001D4B0022082118001AF013F822E01A4BE7
:104290000122082118001AF00CF8FA235B0018001C
:1042A00013F04AFD144B0022082118001AF001F8FF
:1042B000642013F041FD104B01220821180019F071
:1042C000F8FF642013F038FD0B4B00220821180082
:1042D00019F0EFFF05F0F0FF084B01221A70C046FD
:1042E000BD4603B090BDC046A1000020580E00207E
:1042F000581900202816002000040050D118002072
:1043000080B500AF17F046FD0DF088FFFFF736FFD0
:1043100005F0F6FF14F0D4FAC046BD4680BD00009B
:10432000F0B58DB000AF1F23F918087069460E0074
:1043300013211823CB18D919002008701521182330
:10434000CB18D9190020087016211823CB18D919B9
:104350000020087017201823C318D91900200870EE
:1043600014201823C318D91900200870D0490978DF
:104370000800013878623961002078613A697B6908
:104380001000400F3A617B61DD0005433B69DC00B2
:104390003960002078603C687D682300580F2B004E
:1043A000DB00FB60FB680343FB602300DB00BB60BA
:1043B0000B000733DB08DB006A46D31A9D466B46C9
:1043C00000333B6216211823CB18DB1900221A7028
:1043D00018E016201823C318DB191B783A6A00214D
:1043E000D1541823C318DB191A78B24B520000219C
:1043F000D1521823C318DB191A781823C318DB19F4
:1044000001321A70AA4B1B78162218215218D219A1
:1044100012789A42DDD317211823CB18DB19182202
:104420008A18D219127801321A701F23FB181B78D0
:10443000013B3A6A080018240919C9190978D154AE
:104440001823C318DB1918228218D21912780132E6
:104450001A70152318229B18DB1901221A7050E0DC
:104460001F23FB181B785A1E15241823E318DB1989
:10447000187891491300DB009B1A1B185B005B5AEC
:10448000002B34D01F23FB181B785A1E894B520077
:10449000D35A1AB220001823C318DB191B78013B2A
:1044A000012199400B001BB2134319B21F23FB18C3
:1044B0001B785A1E89B27F4B5200D1521F23FB1822
:1044C0001B785A1E1823C318DB1918787A49130071
:1044D000DB009B1A1B185B005B5ADB089BB2013B9D
:1044E0003A6A172118200918C9190978D1541521D9
:1044F0001823CB18DB191A781823CB18DB190132D3
:104500001A70152318229B18DB191B78062BA7D9C4
:10451000142318229B18DB1900221A701722182363
:10452000D318DB1918215218D219127801321A70D7
:10453000162318229B18DB1900221A709BE0162301
:1045400018229B18DB191B783A6AD35C1A001723D0
:1045500018215B18DB191B78013B9A4200D080E0E0
:10456000152318229B18DB1901221A7072E01624F9
:104570001823E318DB191A7815251823EB18DB1913
:1045800018784D491300DB009B1A1B185B005B5A1F
:10459000002B55D01823E318DB191A781823EB18D1
:1045A000DB19187844491300DB009B1A1B185B00C9
:1045B0005B5ADB089BB2013B3A6AD35C002B3FD1CC
:1045C00020001823C318DB191A783A4B5200D35A2B
:1045D0001AB22C001823E318DB191B78013B0121C8
:1045E00099400B001BB2134319B21823C318DB19EF
:1045F0001A7889B22F4B5200D1521823C318DB19F5
:104600001A781823E318DB1918782B491300DB00FC
:104610009B1A1B185B005B5ADB089BB2013B3A6A92
:10462000172118200918C9190978D1541422182300
:10463000D318DB1918215218D219127801321A70C6
:1046400015211823CB18DB191A781823CB18DB197E
:1046500001321A70152318229B18DB191B78062BC0
:1046600085D916211823CB18DB191A781823CB18F3
:10467000DB1901321A700E4B1B78162218215218C2
:10468000D21912789A4200D259E7142318229B18A3
:10469000DB191B78002B00D03AE7132318229B1854
:1046A000DB191B78B5461800BD460DB0F0BDC046FD
:1046B000A00000207816002000000020B0B588B0CF
:1046C00000AF0200FB1D1A70BB1D0A1C1A700823E4
:1046D000FB1800221A800B23FB1800221A701F23DC
:1046E000FB1800221A700A23FB1800221A701E23DE
:1046F000FB1800221A70994B0222002118001FF0AB
:1047000008FCFB1D1B78013B954A0021D154FB1D81
:104710001B78013B934A0021D1540123BB612EE059
:10472000FB1D1B785A1E90491300DB009B1ABA69C7
:104730009B185B005B5A002B1ED0FB1D1B785A1E7A
:1047400089491300DB009B1ABA699B185B005B5A0E
:10475000DB089AB2BB1D1B789BB29A420CD1BB1DE1
:104760001B78013B7E4A0121D1547C4BBA1D127843
:104770001A70BB69DBB2EDE0BB690133BB61BB6999
:10478000062BCDDD01237B6111E0FB1D1B787A69CF
:104790009A4209D07B69013B714AFF21D1547B6960
:1047A000013B704A0021D1547B6901337B616F4B1F
:1047B0001B781A007B699342E7DD73E008243A19FD
:1047C000674B1100180000F0D3F803001A001F21F6
:1047D0007B1801321A707A18BB1D12781B789A4226
:1047E00068D07B181B78013B3A190121D15413235F
:1047F000FB1801221A7050E01F243B191B785A1E27
:1048000013257B19187858491300DB009B1A1B18D5
:104810005B005B5A002B3AD03B191B785A1E7B1960
:10482000187851491300DB009B1A1B185B005B5A78
:10483000DB089AB20A217B181A707B181B78013B9F
:104840000822BA18D35C002B21D13B191B78013BFD
:10485000434AD25C0B203B1801321A707B181B783C
:10486000013B3F4AD35C05003A1812789A420ED2B7
:1048700008007B181B78013B394A79190978D15413
:104880003B181B78013B374A39190978D154132159
:104890007B181A787B1801321A701323FB181B78C7
:1048A000062BA9D90823FB18180000F0A5F8031E51
:1048B00084D000E0C04613E01E22BB181B78BA1853
:1048C000591C11701900254B1F203A1812785A54A0
:1048D00001007B181B785A1E7B1822498A5C1A70CB
:1048E0001F23FB181B78013B1E4AD35C002BE3D12E
:1048F0000123FB602AE0FB1D1B785A1E1A49130096
:10490000DB009B1AFA689B185B005B5A002B1AD0DD
:10491000FB1D1B785A1E14491300DB009B1AFA6812
:104920009B185B005B5ADB089AB2BB1D1B78013BEE
:104930000B49CB5C013B0949CB5C9BB29A4202D14B
:10494000FB68DBB206E0FB680133FB60FB68062B0B
:10495000D1DD00231800BD4608B0B0BDAC22002058
:10496000141700201817002000000020A0000020CD
:1049700080B584B000AF786039600F217B18FF22CA
:104980001A700E23FB1800221A703B681B78002B4C
:1049900003D17B187A6812781A700023BB601BE081
:1049A000BB687A68D3181B780F217A1812789A425C
:1049B0000FD9BB683A68D3181B78002B09D1BB68A4
:1049C0007A68D2187B1812781A700E23FB18BA680E
:1049D0001A70BB680133BB60064B1B781A00BB68BA
:1049E0009342DDDB0E23FB181B781800BD4604B094
:1049F00080BDC046A000002080B584B000AF7860C4
:104A00000F23FB1801221A700023BB600CE0BB6867
:104A10007A68D3181A780F217B18791809780A4018
:104A20001A70BB680133BB60064B1B781A00BB6869
:104A30009342ECDB0F23FB181B781800BD4604B033
:104A400080BDC046A0000020F0B587B002AF0200D4
:104A5000FB1D1A70834A844B110018001FF04AFC9A
:104A6000814B1800FBF75AFB03009AB27E49FB1DED
:104A7000187801235B420093322313F0EDFC0F23DF
:104A8000FB1801221A701BE00F243B191A78774992
:104A9000754B18001FF02EFC734B1800FBF73EFB04
:104AA00003009AB27049FB1D187801235B42009302
:104AB000322313F0D1FC3B191A783B1901321A70DA
:104AC0000F23FB181B78052BDED96949FB1D1878CD
:104AD00001235B4200933223032213F0BDFC0E231B
:104AE000FB1800221A70A7E00E243B191B785A1CF1
:104AF00060495D4B18001FF0FDFB5B4B1800FBF796
:104B00000DFB03009AB25849FB1D187801235B4244
:104B10000093322313F0A0FC3B191A785649130076
:104B2000DB009B1A5B005B5A1A0013005B009B18AA
:104B30005B00524A99184C4B052218001FF02FFCBD
:104B40004949FB1D187801235B420093322305225B
:104B500013F082FC4A49FB1D187801235B42009345
:104B60003223012213F078FC0D23FB1801221A7066
:104B70004DE00E23FB181A780D23FB1818783E49D8
:104B80001300DB009B1A1B185B005B5A002B06D13D
:104B90003C49354B002218001FF0ACFB22E00E25EB
:104BA0007B191A780D26BB19187833491300DB00DE
:104BB0009B1A1B185B005B5ADB089BB21C007B191D
:104BC0001A78BB1918782C491300DB009B1A1B18A4
:104BD0005B005B5A1A00072313402B49224822002E
:104BE0001FF088FB204B1800FBF798FA03009AB2DD
:104BF0001D49FB1D187801235B420093322313F0FB
:104C00002BFC0D217B181A787B1801321A700D23AA
:104C1000FB181B78052BACD91C49FB1D1878012308
:104C20005B4200933223022213F016FC0E217B1804
:104C30001A787B1801321A70154B1B780E22BA189D
:104C400012789A4200D24FE71249FB1D18780123CF
:104C50005B4200933223012213F0FEFBC046BD46A7
:104C600005B0F0BD98B40208080E0020ACB40208EC
:104C7000B4B40208B8B4020800000020A8AE0208CC
:104C8000C4B40208C8B40208CCB40208D4B4020800
:104C9000A0000020D8B4020890B587B002AF02008F
:104CA000FB1D1A703C4A3D4B110018001FF022FBFF
:104CB0003A4B1800FBF732FA03009AB23749FB1D52
:104CC000187801235B420093322313F0C5FB0F23B6
:104CD000FB1801221A703EE00E23FB1801221A7005
:104CE0002EE00F203B181B785A1E2D4B5200D35A32
:104CF00019000E243B191B78013B802212021A4135
:104D000013000B4016D03B181A783B191B78254925
:104D100022481FF0EFFA214B1800FBF7FFF90300C0
:104D20009AB21E49FB1D187801235B42009332237F
:104D300013F092FB0E217B181A787B1801321A703F
:104D40000E23FB181B780A2BCBD90F217B181A785E
:104D50007B1801321A70144B1B780F22BA18127884
:104D60009A42B9D9114A0D4B110018001FF0C2FA2E
:104D70000A4B1800FBF7D2F903009AB20749FB1D52
:104D8000187801235B420093322313F065FBC04681
:104D9000BD4605B090BDC046DCB40208080E002038
:104DA0007C440020F8B40208A00000200CB50208E2
:104DB000F0B589B002AF0200FB1D1A701223FB1878
:104DC00000221A8013F0FCFE0300FB60FB68002247
:104DD0001A70CA4B1B781A00C949CA4B18001FF039
:104DE00089FAC84AFB68110018001FF0A3FAC64BE5
:104DF0001B781A00C549C34B18001FF07BFAC14A43
:104E0000FB68110018001FF095FAC149BD48062340
:104E10000093022300221FF06DFABA4AFB681100CA
:104E200018001FF087FABB4ABB49B64B18001FF0A9
:104E300061FAB44AFB68110018001FF07BFAB74A08
:104E4000B749B04B18001FF055FAAE4AFB68110085
:104E500018001FF06FFAB34AAA4B110018001FF098
:104E600049FAA84AFB68110018001FF063FA1723DB
:104E7000FB1801221A7048E017243B191A78AA4936
:104E8000A04B18001FF036FA9E4AFB68110018006C
:104E90001FF050FA3B191B78A44AD35C042B27D887
:104EA0009A00A34BD3181B689F46A24A954B11004A
:104EB00018001FF01FFA1CE09F4A924B11001800C7
:104EC0001FF018FA15E09D4A8E4B110018001FF0D4
:104ED00011FA0EE09A4A8B4B110018001FF00AFAE3
:104EE00007E0984A874B110018001FF003FA00E012
:104EF000C046844AFB68110018001FF01BFA1721F6
:104F00007B181A787B1801321A701723FB181B784C
:104F1000052BB1D98C4A7B4B110018001FF0EAF920
:104F2000784AFB68110018001FF004FA1623FB18DA
:104F300001221A7049E016203B181B785A1E83493B
:104F400013005B009B185B015B58002B0DD13B18D5
:104F50001A787F496B4B18001FF0CCF9694AFB683F
:104F6000110018001FF0E6F929E01626BB191C787D
:104F7000BB191B785A1E754913005B009B185B0117
:104F8000CB1828331B6818000DF03CFF03001D00F0
:104F9000BB191B785A1E6F4B9200D35818000DF0A6
:104FA00031FF03006C49574800932B0022001FF08B
:104FB000A1F9544AFB68110018001FF0BBF9162133
:104FC0007B181A787B1801321A701623FB181B788D
:104FD000062BB0D9FB681800FBF7A0F803001A00F5
:104FE000FB689A185D4B1000190003231A001EF08D
:104FF00087FFFB681800FBF791F803001A00FB68B5
:105000009A18574B100019001D231A001EF078FF44
:10501000FB681800FBF782F802001223FB181A80C5
:105020001523FB1801221A7023E0344B1B785A1EFB
:105030004C4B5200D35A190015203B181B78013BEA
:10504000802212021A4113000B400CD03B181A7830
:1050500045492C4B18001FF04DF92A4AFB681100F6
:1050600018001FF067F915217B181A787B18013298
:105070001A701523FB181B78052BD6D91223FB18A1
:105080001C88FB681800FBF749F803009C420ED10E
:10509000FB681800FBF742F803001A00FB689A1837
:1050A000324B1000190005231A001EF029FFFB687F
:1050B0001800FBF733F803001A00FB689A18274B17
:1050C0001000190003231A001EF01AFFFB1D1B78A5
:1050D000002B0ED0FB681800FBF720F803009AB2F3
:1050E000F968FB1D187801235B420093322313F00B
:1050F000B3F9C046BD4607B0F0BDC046A1000020D0
:105100002CB50208080E0020D018002048B502086F
:1051100064B5020884B5020890B50208A8B5020873
:10512000B4B50208D0B50208E4B50208481600205C
:10513000E8B60208ECB50208F4B502080CB602089D
:1051400018B6020834B6020854B60208E83C00203B
:105150006CB602087820002088B60208D4B4020891
:10516000B8B602087C440020D8B60208E0B60208AF
:1051700090B585B000AF78600E23FB1800221A703E
:105180000F23FB1800221A704A4A7B68110018008E
:10519000FAF7BAFF031E03D1474B1B781BB285E019
:1051A000464A7B6811001800FAF7AEFF031E01D1D2
:1051B000FF237BE07B681B78232B25D17B680133A1
:1051C00018001EF04CFC02000E217B181A700A0019
:1051D000BB181B78002B0AD0394B1B781100BA186A
:1051E00012789A4203D87B181B781BB25EE0324BD0
:1051F0001B780E22BA1812789A4203D12E4B1B78D4
:105200001BB253E0662351E00F23FB1800221A70F3
:105210001DE00F243B191A7813009B009B185B00BC
:10522000284A9A187B6811001800FAF76DFF031ED0
:1052300007D17B681B78002B03D03B191B781BB26E
:1052400034E00F217B181A787B1801321A701C4B3E
:105250001B780F217A1812789A42DAD37B18002231
:105260001A701DE00F243B191A7813009B009B183D
:105270005B00154A9A187B6811001800FAF744FF82
:10528000031E07D13B191B781B021BB2FE221343DE
:105290001BB20BE00F217B181A787B1801321A70B1
:1052A0000F23FB181B78092BDCD964231800BD469B
:1052B00005B090BDFCB60208A100002000B70208AE
:1052C000A00000201C170020B0160020B0B586B04A
:1052D00000AF02003960FB1D1A701323FB18002277
:1052E0001A7000237B6100237B610FE07B699A00C9
:1052F000404BD2183B6811001800FAF705FF031E57
:1053000001D1062371E07B6901337B617B69032B4B
:10531000ECDD01237B6112E07A6913009B009B188E
:105320005B00354A9A183B6811001800FAF7ECFE4A
:10533000031E01D1072358E07B6901337B612F4BAA
:105340001B781A007B699342E6DB00237B6112E045
:105350007A6913009B009B185B00294A9A183B68E6
:1053600011001800FAF7D0FE031E01D107233CE01C
:105370007B6901337B617B69092BE9DD214B224A83
:105380001A6019E01F4B1B681B681B68FB60FB68F9
:105390001800FAF7C3FE0300BB60BA68F9683B68FF
:1053A00018001EF0EAFF031E01D108231DE0154B73
:1053B0001B685A68134B1A60124B1B68002BE1D113
:1053C000FB1D1A7813009B009B185B000A4A9B1870
:1053D0003A68110018001EF0C8FF13257C19FEF76B
:1053E00019FC030023707B191B781800BD4606B01A
:1053F000B0BDC046B0AF02081C170020A0000020BE
:10540000B0160020601900208803002080B588B005
:1054100000AF02003960FB1D1A701723FB18002231
:105420001A700023FB610023BB610023FB6129E0AC
:10543000FA6913009B009B185B005B4A9A183B6853
:1054400011001800FAF760FE031E18D1FB1D1B782F
:105450005A1E564B5200D35A1AB20121FB69994089
:105460000B001BB2134319B2FB1D1B785A1E89B2E5
:105470004E4B5200D1521723FB181B7890E0FB696A
:105480000133FB61FB69092BD2DD0023BB610FE017
:10549000BB699A00464BD2183B6811001800FAF716
:1054A00033FE031E01D106237AE0BB690133BB61E1
:1054B000BB69032BECDD0123BB6112E0BA69130069
:1054C0009B009B185B003B4A9A183B681100180030
:1054D000FAF71AFE031E01D1072361E0BB6901330D
:1054E000BB61354B1B781A00BB699342E6DB334B3B
:1054F000334A1A6019E0314B1B681B681B683B611B
:105500003B691800FAF70AFE0300FB60FA68396984
:105510003B6818001EF031FF031E01D108233FE055
:10552000264B1B685A68254B1A60244B1B68002BBE
:10553000E1D10023FB6118E01B49FA6913009B00CD
:105540009B185B005B5C002B0CD1FA6913009B007D
:105550009B185B00144A9B183A68110018001EF053
:1055600004FF05E0FB690133FB61FB69092BE3DD07
:10557000FB1D1B785A1E0D4B5200D35A1AB2012143
:10558000FB6999400B001BB2134319B2FB1D1B783A
:105590005A1E89B2054B5200D1521723FB181B78B3
:1055A0001800BD4608B080BDB0160020401700208E
:1055B000B0AF02081C170020A000002064190020D2
:1055C0008803002080B586B000AFB9607A6019000A
:1055D0000F23FB18021C1A700E23FB180A1C1A70EA
:1055E0001523FB18D94A12781A703B6A002B03D096
:1055F000D64B20221A7002E0D44B00221A702423CA
:10560000FB181B78002B04D01623FB1822221A80CB
:1056100003E01623FB1820221A807A6880231B05DA
:105620009A4200D3D5E07B68DAB2C94B1A70C84BF6
:105630000E217A1812785A707B181B78082B00D923
:10564000C6E19A00C34BD3181B689F46BB681B7802
:10565000DAB2BF4B9A700F23FB181B78032220216C
:10566000180005F0DBFCB6E1BB681B785BB2DAB270
:10567000B74B9A700F23FB181B78032220211800C8
:1056800005F0CCFCA7E1BB681B889BB2DAB2B04B3B
:105690009A70BB681B889BB21B0A9BB2DAB2AC4BF8
:1056A000DA700F23FB181B7804222021180005F064
:1056B000B5FC90E1BB681B881BB2DAB2A44B9A70B0
:1056C000BB681B881BB21B121BB2DAB2A04BDA708C
:1056D0000F23FB181B7804222021180005F09EFCE4
:1056E00079E1BB681B68DAB2994B9A70BB681B689A
:1056F0001B0ADAB2964BDA70BB681B681B0CDAB275
:10570000934B1A71BB681B681B0EDAB2904B5A712F
:105710000F23FB181B7806222021180005F07EFCC1
:1057200059E1BB681B68DAB2894B9A70BB681B6889
:105730001B12DAB2864BDA70BB681B681B14DAB234
:10574000834B1A71BB681B681B16DAB2804B5A7107
:105750000F23FB181B7806222021180005F05EFCA1
:1057600039E1BB681B78DAB2794B9A70BB680133B8
:105770001B78DAB2764BDA70BB6802331B78DAB288
:10578000734B1A71BB6803331B78DAB2704B5A71D2
:10579000BB6804331B78DAB26D4B9A71BB68053372
:1057A0001B78DAB26A4BDA71BB6806331B78DAB25F
:1057B000674B1A72BB6807331B78DAB2644B5A72B4
:1057C0000F23FB181B780A222021180005F026FC65
:1057D00001E15F4B00221A705D4B0E217A1812789E
:1057E0005A707B681B0EDAB2594B9A707B681B0C9F
:1057F000DAB2574BDA707B681B0ADAB2544B1A7173
:105800007B68DAB2524B5A717B181B78082B00D98F
:10581000E0E09A00504BD3181B689F46BB681B788A
:10582000DAB24B4B9A711623FB1819880F23FB1819
:105830001B780722180005F0F1FBCCE0BB681B7851
:105840005BB2DAB2424B9A711623FB1819880F2308
:10585000FB181B780722180005F0E0FBBBE0BB68D3
:105860001B889BB2DAB23A4B9A71BB681B889BB219
:105870001B0A9BB2DAB2364BDA711623FB18198871
:105880000F23FB181B780822180005F0C7FBA2E0C5
:10589000BB681B881BB2DAB22D4B9A71BB681B88A0
:1058A0001BB21B121BB2DAB2294BDA711623FB189A
:1058B00019880F23FB181B780822180005F0AEFB8F
:1058C00089E0BB681B68DAB2214B9A71BB681B6820
:1058D0001B0ADAB21E4BDA71BB681B681B0CDAB20A
:1058E0001B4B1A72BB681B681B0EDAB2184B5A723C
:1058F0001623FB1819880F23FB181B780A2218009F
:1059000005F08CFB67E0BB681B68DAB2104B9A713C
:10591000BB681B681B12DAB20D4BDA71BB681B68DF
:105920001B14DAB20A4B1A72BB681B681B16DAB278
:10593000074B5A721623FB1819880F23FB181B7884
:105940000A22180005F06AFB45E0C0462016002038
:105950009C18002004B7020828B70208BB681B780F
:10596000DAB22D4B9A71BB6801331B78DAB22A4B3D
:10597000DA71BB6802331B78DAB2274B1A72BB6844
:1059800003331B78DAB2244B5A72BB6804331B789A
:10599000DAB2214B9A72BB6805331B78DAB21E4B20
:1059A000DA72BB6806331B78DAB21B4B1A73BB681A
:1059B00007331B78DAB2184B5A731623FB18198871
:1059C0000F23FB181B780E22180005F027FB02E0BE
:1059D000C04600E0C046114B1522BA1812781A7062
:1059E0003B6A002B13D016F051FA03003B61C0460E
:1059F0000B4B1B78002B07D016F048FA02003B69CE
:105A0000D31A3A6A9A42F3D8054B1B7800E0002378
:105A10001800BD4606B080BD9C180020201600204E
:105A2000CE180020B0B584B002AF1E201EF042F8A0
:105A300003007B607B681E22002118001EF069FABB
:105A40000C4B1B7D5A1E0C4B9200D258094B9B7D70
:105A50001D00084B5B7D1C00064B1B8B07497868BB
:105A6000019300942B001EF045FC7B681800BD4696
:105A700002B0B0BD28160020740000204CB7020808
:105A800090B587B004AF0200FB1D1A70BB1D0A1C45
:105A90001A700D4B19780C4B1C78BB1D1A78FB1D26
:105AA00018780123039301235B42029301235B4295
:105AB000019302230093230005F05AFE030018000F
:105AC000BD4603B090BDC046A100002080B588B09F
:105AD00006AF0200FB1D1A70BB1D0A1C1A700023C2
